S0100000656E6332386A36302E73726563A4
S11300000C9434000C9444050C9451000C9451004D
S11300100C9451000C9451000C9451000C94510018
S11300200C9451000C9451000C9451000C94510008
S11300300C9451000C9451000C948A050C945100BA
S11300400C9451000C9451000C94490B0C945100E5
S11300500C9451000C9451000C9451000C945100D8
S11300600C9451000C94510011241FBECFEFD8E022
S1130070DEBFCDBF11E0A0E0B1E0EAEDFEE102C0D9
S113008005900D92AA38B107D9F724E0AAE8B1E0A7
S113009001C01D92AE36B207E1F70E9468050C94C8
S11300A06B0F0C9400006C31710508F1FC0126857E
S11300B0378521153140E9F4FC0120893189283044
S11300C03105C9F446A157A160A571A5403C584A21
S11300D061057E4B91F4FC01848995898115F1E0D9
S11300E09F0769F08115924061F482E0089580E0F1
S11300F0089580E0089580E0089580E0089581E007
S1130100089580E0089520E032E0FC01358B248BD3
S1130110DC019096AC014A5E5F4F26E0FA01019043
S11301200D922A95E1F726E0EAE0F1E0DA01019088
S11301300D922A95E1F7FC01448D558D668D778DDE
S113014046A357A360A771A740EC58EA60E07EEB92
S1130150448F558F668F778F4CE150E068E076E0EE
S11301600E94C60508956F927F928F929F92AF92DC
S1130170BF92CF92DF92EF92FF920F931F93CF9390
S1130180DF936B017C010F2EF2E16F2EF2E07F2EE4
S1130190F02D06EE15E09301F3016EE0AF018091BE
S11301A0D0019091D101A091D201B091D301828468
S11301B09384A484B58488199909AA09BB090B9767
S11301C0A105B10528F0D901C62F1D92CA95E9F7FA
S11301D0EA0188819981AA81BB818C159D05AE05B0
S11301E0BF0509F06CC00F2EF8E5CF2EF2E0DF2E2C
S11301F0F02D0F2EF2E1EF2EF1E0FF2EF02D06EDA3
S113020011E0F30180819181A281B38125852F932F
S113021024852F9323852F9322852F9321851F9245
S11302202F9320851F922F9327811F922F9326812E
S11302301F922F9325811F922F9324811F922F9316
S11302404B2F5527662777277F936F935F934F93A1
S113025050E060E070E07F936F935F93AF9350E062
S113026060E070E07F936F935F939F939927AA2731
S1130270BB27BF93AF939F938F93FF92EF921F93EC
S11302800F930E941E0CF80101900020E9F73197AA
S1130290BF01665D71408DB79EB784960FB6F89422
S11302A09EBF0FBE8DBFC8010E94300B9EE0690E39
S11302B0711C6C147D0409F0A4CF80E050C03E96FC
S11302C02C533F4F2017310709F068CFC8E5D2E01F
S11302D080E091E09F878E8728E030E0398B288B7F
S11302E026E02A8B24E02B8B9D8B8C8B86E0EAE026
S11302F0F1E0AEE6B2E001900D928A95E1F780EC70
S113030098EAA0E0BEEB8C8F9D8FAE8FBF8F86E006
S1130310EBE8F1E0A8E7B2E001900D928A95E1F7ED
S1130320CEA2DFA2E8A6F9A686E0E4E0F1E0DE01D1
S113033001900D928A95E1F786E0EAE0F1E0AEE5FE
S1130340B2E001900D928A95E1F788E096E09D87EE
S11303508C876AE270E0CE010E94FE0481E0DF91A6
S1130360CF911F910F91FF90EF90DF90CF90BF90AE
S1130370AF909F908F907F906F900895CF92DF926F
S1130380EF92FF920F931F93CF93DF9340918A01D3
S1130390242F30E0FC01C48CD58CE68CF78C220F22
S11303A0331FD901AA0FBB1FAA0FBB1FAA0FBB1F64
S11303B0A21BB30BED01CE5EDD4FC882D982EA8267
S11303C0FB82AA5EBD4F769686E001900D928A95D7
S11303D0E1F78091D0019091D101A091D201B09127
S11303E0D3018A879B87AC87BD87443020F44F5F55
S11303F040938A015DC010928A015AC08881998114
S1130400AA81BB812D852F932C852F932B852F9328
S11304102A852F9329851F922F9328851F922F9326
S11304202F811F922F932E811F922F932D811F9224
S11304302F932C811F922F934B2F552766277727B5
S11304407F936F935F934F9350E060E070E07F93EE
S11304506F935F93AF9350E060E070E07F936F938E
S11304605F939F939927AA27BB27BF93AF939F932B
S11304708F93FF92EF921F930F930E941E0CF8012B
S113048001900020E9F73197BF01665D71408DB797
S11304909EB784960FB6F8949EBF0FBE8DBFC80159
S11304A00E94300B2E96CC15DD0509F0A7CF11C0A4
S11304B0C2E1D2E00F2EF8E5CF2EF2E0DF2EF02DD0
S11304C00F2EF2E1EF2EF1E0FF2EF02D06ED11E0FC
S11304D095CFDF91CF911F910F91FF90EF90DF9017
S11304E0CF9008959FB7F8943D9A81EA8A95F1F7E1
S11304F000C03D9885E18A95F1F700C0359903C0A5
S11305005C9A81E001C080E09FBF9CE89A95F1F776
S113051008959FB7F8943D9A00C081113D9885E1F4
S11305208A95F1F700C03D989FBF0895EF92FF921E
S11305300F931F93CF93DF93C0E0D0E0EE24E394B6
S1130540F12C082F10E097010C2E02C0220F331F4C
S11305500A94E2F7A801422353232417350721F410
S113056081E00E94890203C080E00E9489022196F2
S1130570C830D10541F7DF91CF911F910F91FF90C2
S1130580EF9008959FB7F8943D9A00C03D9824E0F9
S11305902A95F1F7000086B12FE02A95F1F79FBF65
S11305A085FB882780F908951F93CF93DF93C0E0DC
S11305B0D0E010E00E94C20290E00C2E02C0880F2E
S11305C0991F0A94E2F7182B2196C830D10591F7A8
S11305D0812FDF91CF911F910895CF930E947202D2
S11305E0813011F58CEC0E94960284E40E949602FC
S11305F02FEE49E452E0215040405040E1F700C062
S113060000000E9472028CEC0E9496028EEB0E9403
S113061096020E94D402C82F0E94D4022C2F30E0EC
S1130620A901582BCA0102C080E090E0CF9108953F
S11306307894929582958F7089279F708927089561
S113064084B18C6284B924982A9A8CB580658CBD57
S11306508DB581608DBD08958EBD0DB407FEFDCFAF
S11306608EB50895EF92FF920F931F93CF93DF936C
S1130670EC01E62EF72E2A988AE70E942C03209795
S113068049F00E2D1F2DF80181918F010E942C033A
S11306902197C9F72A9ADF91CF911F910F91FF906B
S11306A0EF900895EF92FF920F931F93CF93DF93F0
S11306B0EC01E62EF72E2A988AE30E942C03209759
S11306C059F00E2D1F2D80E00E942C038EB5F801E9
S11306D081938F012197B9F72A9ADF91CF911F91C6
S11306E00F91FF90EF9008958FEF0E942C030895CF
S11306F0CF93C62F2A98962F9F71892B0E942C0383
S113070080E00E942C03CC2314F40E9474030E9402
S113071074032A9ACF910895CF93C42F2A986F71A6
S1130720862B0E942C038C2F0E942C032A9ACF9193
S11307300895CF93C82FC0762C2F30E08091CF013D
S113074090E02817390779F043E06FE180EA0E94CE
S11307508C03C093CF014C2F4295469547706FE1AF
S113076080E80E948C03CF910895CF93C82F0E94F4
S113077099036C2F80E00E947803CF910895CF9362
S1130780DF93C82FD62F0E9499034D2F6C2F80E43E
S11307900E948C03DF91CF910895CF93DF93C82FEC
S11307A0D72F0E94BF036D2F81E08C0F0E94BF03DF
S11307B0DF91CF910895CF93C62F682F84ED0E94C7
S11307C0BF036C2F86ED0E94BF038AEE0E94B5031F
S11307D080FDFBCFCF910895CF93DF930E94200338
S11307E04FEF60E08FEF0E948C0383EF91E001975D
S11307F0F1F700C000006DE180E00E9478038823D7
S1130800D1F360E070E088E00E94CD0360E070E026
S11308108CE00E94CD036FEF7BE08AE00E94CD0361
S113082060E07CE084E00E94CD036FEF71E186E03C
S11308300E94CD0388E30E94B503682F616088E3BA
S11308400E94BF036DE080EC0E94BF0360E081EC76
S11308500E94BF0342E362EC80E80E948C0362E1E1
S11308607CE086EC0E94CD0362E184EC0E94BF032D
S11308706CED75E08AEC0E94CD03CAE0D1E068819A
S113088084EE0E94BF03698185EE0E94BF036A81E2
S113089082EE0E94BF036B8183EE0E94BF036C81D2
S11308A080EE0E94BF036D8181EE0E94BF0360E071
S11308B071E080E10E94DB0360EA78E084E10E9459
S11308C0DB0366E774E084E10E94DB038FE10E94AE
S11308D0990340EC6BE180E80E948C0344E06FE1F3
S11308E080E80E948C0363E085E70E94BF0395E0E3
S11308F09A95F1F780E2EAE4F1E0A1E9B1E0019030
S11309000D928A95E1F7E1E9F1E001900020E9F721
S11309103197BF016159714081E991E00E94300B28
S1130920DF91CF910895AF92BF92CF92DF92EF9271
S1130930FF920F931F93CF93DF9300D000D000D08A
S1130940CDB7DEB77C015B0189E30E94B503882340
S113095009F440C06091CD017091CE0180E00E9405
S1130960CD03BE016F5F7F4F86E090E00E9452038B
S1130970C980DA80D092CE01C092CD018D8187FFEB
S11309800DC00B811C8104501109A016B10608F496
S11309908501B701C8010E94520302C000E010E0C3
S11309A0F701E00FF11F1082B60161507109611562
S11309B08CE0780734F06FEF7BE08CE00E94CD038D
S11309C003C08CE00E94CD0340E46EE180E80E9405
S11309D08C0302C000E010E0C80126960FB6F8941C
S11309E0DEBF0FBECDBFDF91CF911F910F91FF905E
S11309F0EF90DF90CF90BF90AF9008950F931F9327
S1130A00CF93DF938C01EB010FC08CE10E94B503FF
S1130A1081FF0AC040E86FE180E80E948C0340E84F
S1130A206FE180EA0E948C036FE180E00E9478030A
S1130A3083FDEBCF60E07CE082E00E94CD03BE0149
S1130A40745F86E00E94CD0360E171E081E090E094
S1130A500E943203B801CE010E94320348E06FE1E4
S1130A6080E80E948C03DF91CF911F910F9108952C
S1130A70529818B88FEF87B90895E9E6F0E08081BD
S1130A8082608083E89A08951F920F920FB60F92A6
S1130A9011242F933F934F935F936F937F938F937F
S1130AA09F93AF93BF93EF93FF930E946D07FF91C2
S1130AB0EF91BF91AF919F918F917F916F915F91D2
S1130AC04F913F912F910F900FBE0F901F9018954B
S1130AD078940E947C050E9438050E943D0588B1E7
S1130AE08F7C88B987B1806387B987E690E00E94DC
S1130AF00F0B0E94C305FFCF84B5826084BD8FEFC6
S1130B0087BDEEE6F0E080818260808385B58360F6
S1130B1085BD08951F920F920FB60F9211242F9343
S1130B208F939F93AF93BF938091D4019091D501FC
S1130B300196883E23E0920728F49093D501809390
S1130B40D40117C01092D5011092D4018091D00124
S1130B509091D101A091D201B091D3010196A11D30
S1130B60B11D8093D0019093D101A093D201B09391
S1130B70D301BF91AF919F918F912F910F900FBE91
S1130B800F901F9018950E94EC030895CF93DF9364
S1130B90EC01269626E0FE01DC0101900D922A95D7
S1130BA0E1F726E0EAE0F1E0DE0101900D922A95FA
S1130BB0E1F7FC0175876487BA01625F7F4F0E9489
S1130BC0FE04DF91CF9108951F93CF93DF93EC013F
S1130BD0423041F4CB010897A0E0B0E00696A11D95
S1130BE0B11D03C080E090E0DC0162307105E0F0EB
S1130BF0AB01FE01208130E0322F22271181212B0D
S1130C00820F931FA11DB11D3296425051094230EB
S1130C10510580F79B01225031092E7F2E5F3F4FF3
S1130C20C20FD31F61707727672B61F0488150E0B2
S1130C3060E070E0762F652F542F4427840F951FB2
S1130C40A61FB71FAD01662777274115510561051A
S1130C50710571F0AA27BB27840F951FA61FB71F24
S1130C60AD0166277727411551056105710591F797
S1130C7098278927982780959095DF91CF911F9188
S1130C8008950F931F93CF93DF93EC018B01962F5D
S1130C90812F998B888B1D8A1C8A80E88E8B198EF4
S1130CA0188E8A8D9B8DAC8DBD8D8E8F9F8FA8A342
S1130CB0B9A380EC98EAA0E0BEEB8A8F9B8FAC8F3F
S1130CC0BD8F40E064E170E0CE010E960E94E40521
S1130CD0998F888FA80168E070E0CE010E94C60554
S1130CE080E0DF91CF911F910F9108950F931F938F
S1130CF0CF93DF9368307105B0F0FC0122A1283056
S1130D0091F4EB018C0112A215A214A240E0829688
S1130D100E94E405F80195A384A3BE016C5E7F4F95
S1130D20C8010E94410680E0DF91CF911F910F918D
S1130D300895FC0126852534D9F4468D578D60A18C
S1130D4071A1403C584A61057E4B91F4FC016089D5
S1130D50718976276727762764517109278921309D
S1130D6019F40E94760604C0263011F40E94C00AC9
S1130D7080E008956F927F928F929F92AF92BF927C
S1130D80CF92DF92EF92FF920F931F93CF93DF9353
S1130D9000D000D01F92CDB7DEB78C01662EFE01C5
S1130DA0319685E0DF011D928A95E9F7C12CD12C9B
S1130DB0812C912C54016EE270E0C8010E94EC0B6E
S1130DC0801B910B77247394780EE72CF12CA701E8
S1130DD0B801CE0101960E94070CE1E0F0E0EC0FAF
S1130DE0FD1FEE0DFF1D1082CE0101960E94CE0B59
S1130DF0092E000CAA0BBB0B0C2C04C0880F991FE6
S1130E00AA1FBB1F0A94D2F7882A992AAA2ABB2AA6
S1130E100E0D1F1D6718B8E0CB0ED11C88E1C81653
S1130E20D10449F6712CA301B801CE0101960E94A8
S1130E30070CE1E0F0E0EC0FFD1FE60DF71D10825A
S1130E40CE0101960E94CE0B092E000CAA0BBB0BFF
S1130E50B82FAA2799278827BC01CD0168297929A9
S1130E608A299B290F900F900F900F900F90DF917C
S1130E70CF911F910F91FF90EF90DF90CF90BF9093
S1130E80AF909F908F907F906F900895CF93DF9352
S1130E906E307105F8F0EC018C859D85883026E074
S1130EA0920789F46E507109CE010E94530081307B
S1130EB021F4CE010E9483000DC0823059F4CE018A
S1130EC00E94BE0107C0089729F464517109CE013C
S1130ED00E949906DF91CF910895CF92DF92EF920D
S1130EE0FF920F931F93CF93DF9381E1EAE6F1E042
S1130EF0A6EDB1E001900D928A95E1F7E6EDF1E0FF
S1130F0001900020E9F73197BF01665D714086EDDD
S1130F1091E00E94300B05C0BC0188E592E00E947C
S1130F20460760E072E088E592E00E94930400972F
S1130F3099F780916D04813009F044C008E514E00C
S1130F40F8016489C8010E94300B62E086E891E0F0
S1130F500E94300BF8016489C8010E94BA06C62EAB
S1130F60D72EE82EF92E9F938F937F936F938BE761
S1130F7091E09F938F93C6EDD1E0DF93CF930E94CE
S1130F801E0C09900020E9F72197BE01665D7140AF
S1130F9086ED91E00E94300B62E086E891E00E94C9
S1130FA0300B6C2D7D2D8E2D9F2D0E94B300F801EA
S1130FB0158A148A8DB79EB708960FB6F8949EBF0B
S1130FC00FBE8DBFDF91CF911F910F91FF90EF90D6
S1130FD0DF90CF9008954F925F926F927F928F929D
S1130FE09F92AF92BF92CF92DF92EF92FF920F93B4
S1130FF01F93CF93DF936B017C01213009F0C2C0B2
S1131000C8E5D2E05427452754275DA34CA380E0CC
S113101090E59BA38AA34EA15FA168A579A5072F9C
S1131020112722273327B42FAA2799278827802B13
S1131030912BA22BB32B052F162F272F33270027F5
S113104022273327802B912BA22BB32B762F652FAE
S1131050542F4427442755277727842B952BA62BD9
S1131060B72B0196A11DB11D0B2F11272227332762
S1131070782F662755274427402B512B622B732B3F
S1131080092F1A2F2B2F3327002722273327402BF2
S1131090512B622B732BBA2FA92F982F88278827BF
S11310A09927BB27842B952BA62BB72B8AA79BA705
S11310B0ACA7BDA70E94BE0B092E000CAA0BBB0B4C
S11310C08EA39FA3A8A7B9A782E18FA780E290E08F
S11310D099AB88AB1DAA1CAA80E68EA782E08EABD2
S11310E084E08FAB85E088AF82E889AF1BAA1AAA97
S11310F042E060E270E082E792E00E94E4059BAB8C
S11311008AAB80E09CE2998B888B1B8A1A8A1F86A3
S113111085E48E871D8A1C8A80E88E8B198E188E32
S113112086E08F8BCE8EDF8EE8A2F9A280EC98EA5F
S1131130A0E0BEEB8A8F9B8FAC8FBD8F40E064E153
S113114070E086E692E00E94E405998F888F86E03D
S1131150EEE5F2E0DE0101900D928A95E1F786E07A
S1131160EAE0F1E0AEE5B2E001900D928A95E1F794
S113117088E090E09D878C876AE370E0CE010E944E
S1131180FE04ECC1223009F0CAC0C8E5D2E05427FD
S1131190452754275DA34CA380E090E59BA38AA335
S11311A04AA55BA56CA57DA50EA11FA128A539A5FF
S11311B0832E9924AA24BB24B02FAA2799278827F1
S11311C088299929AA29BB29812E922EA32EBB24D2
S11311D08824AA24BB2488299929AA29BB29322F27
S11311E0212F102F0027002711273327802B912B25
S11311F0A22BB32B0196A11DB11D8B2E9924AA24D9
S1131200BB24382F222711270027082919292A2926
S11312103B29892E9A2EAB2EBB248824AA24BB24D6
S1131220082919292A293B29BA2FA92F982F882759
S113123088279927BB27802B912BA22BB32B8AA716
S11312409BA7ACA7BDA74EA35FA368A779A780E11E
S11312508FA780E290E099AB88AB1DAA1CAA80E519
S11312608EA71BAA1AAA42E06CE170E082E792E022
S11312700E94E4059BAB8AAB80E098E2998B888B53
S11312801B8A1A8A1F8685E48E871D8A1C8A80E839
S11312908E8B198E188E86E08F8BCE8EDF8EE8A211
S11312A0F9A280EC98EAA0E0BEEB8A8F9B8FAC8F0A
S11312B0BD8F40E064E170E086E692E00E94E405C0
S11312C0998F888F86E0EEE5F2E0DE0101900D92C1
S11312D08A95E1F786E0EAE0F1E0AEE5B2E001905C
S11312E00D928A95E1F788E090E09D878C8766E30C
S11312F070E0CE010E94FE0481E18FA71BAA1AAA06
S113130042E06CE170E082E792E00E94E4059BAB6E
S11313108AAB66E370E0CE010E94FE041FC1243054
S113132009F01CC1C8E5D2E028893989322723276E
S11313303227245131098EA586958695281B3109BB
S11313405427452754275DA34CA380E090E59BA335
S11313508AA34AA55BA56CA57DA58EA09FA0A8A481
S1131360B9A44B2C552466247724B82DAA27992791
S1131370882784299529A629B729492C5A2C6B2C0E
S1131380772444246624772484299529A629B72917
S1131390BA2CA92C982C882488249924BB24882925
S11313A09929AA29BB29820F931FA11DB11D8B2E38
S11313B09924AA24BB24382F222711270027802A06
S11313C0912AA22AB32A092F1A2F2B2F3327002759
S11313D022273327802A912AA22AB32ABA2FA92F97
S11313E0982F882788279927BB2788299929AA29EC
S11313F0BB298AA79BA7ACA7BDA74EA35FA368A7D9
S113140079A780E18FA780E290E099AB88AB1DAA11
S11314101CAA80E58EA71BAA1AAA42E06CE170E020
S113142082E792E00E94E4059BAB8AAB80E098E2FD
S1131430998B888B1B8A1A8A1F8685E48E871D8A5E
S11314401C8A80E88E8B198E188E86E08F8BCE8E48
S1131450DF8EE8A2F9A280EC98EAA0E0BEEB8A8FC6
S11314609B8FAC8FBD8F40E064E170E086E692E034
S11314700E94E405998F888F86E0EEE5F2E0DE01B4
S113148001900D928A95E1F786E0EAE0F1E0AEE59D
S1131490B2E001900D928A95E1F788E090E09D8793
S11314A08C8766E370E0CE010E94FE046FE771E072
S11314B08EE892E00E94F70B892B09F04FC00E943E
S11314C0ED020E9418031F928F9384E891E09F938A
S11314D08F9386ED91E09F938F930E941E0C66ED8F
S11314E071E08EE892E00E94000C8E0188E1FE011A
S11314F08FA780E58EA7CEE8D2E009900020E9F717
S1131500CF58D24013AA12AABE01645E7F4F42E0B4
S113151082E792E00E94E405F80193AB82ABCE012E
S11315208896982789279827918B808B118E108E07
S113153040E064E170E086E692E00E94E405F80190
S1131540918F808FBE016A5C7F4FC8010E94FE04A8
S11315500F900F900F900F900F900F9080E0DF91FD
S1131560CF911F910F91FF90EF90DF90CF90BF909C
S1131570AF909F908F907F906F905F904F90089561
S1131580CF93DF93EC018889998998278927982735
S11315902EA526952695821B9109449779F08FA54F
S11315A084FF0CC04AA15BA15427452754276A8DA8
S11315B07B8D8C8D9D8D24E00E94EB078FA582305E
S11315C069F44AA15BA15427452754276A8D7B8D72
S11315D08C8D9D8D21E00E94EB071DC0813169F443
S11315E04AA15BA15427452754276A8D7B8D8C8D96
S11315F09D8D22E00E94EB070EC0883161F44AA160
S11316005BA15427452754276A8D7B8D8C8D9D8D36
S113161022E00E94EB0780E0DF91CF910895909340
S1131620C5008093C400E1ECF0E088E18083808110
S113163080688083E0ECF0E080818260808386E0D3
S11316408093C200E8E5F4E01082148A158A0895B4
S1131650E0ECF0E0908195FFFDCF8093C600089503
S11316600F931F93CF93DF93662371F0EC016150C6
S1131670062F10E00F5F1F4F080F191F89910E945A
S1131680280BC017D107D1F7DF91CF911F910F918C
S113169008951F920F920FB60F9211248F939F9368
S11316A0EF93FF939091C60080916C04853118F0FC
S11316B010926C040EC0913621F481E080936D0485
S11316C008C0E82FF0E0E85AFB4F90838F5F8093C7
S11316D06C04FF91EF919F918F910F900FBE0F902B
S11316E01F9018958F929F92AF92BF92CF92DF92E4
S11316F0EF92FF92CF93DF93EC01688179818A8125
S11317009B81611571058105910521F464E279EDF0
S11317108BE597E02DE133EF41E050E00E94D10EDC
S113172049015A019B01AC01A7EAB1E40E94F00E01
S11317306B017C01ACEEB4EFA50194010E94FE0E96
S1131740DC01CB018C0D9D1DAE1DBF1DB7FF03C079
S11317500197A109B04888839983AA83BB839F77A3
S1131760DF91CF91FF90EF90DF90CF90BF90AF903B
S11317709F908F9008950E94720B089580E091E0ED
S11317800E94720B0895A0E0B0E080930001909352
S11317900101A0930201B09303010895FC0188277D
S11317A09927E89421912032E9F3293010F02E3062
S11317B0C8F32B3241F02D3239F4689404C00E94EE
S11317C0160C820F911D219120532A30C0F31EF470
S11317D0909581959F4F0895FC018191861721F082
S11317E08823D9F7992708953197CF010895FB01EC
S11317F0DC018D91019080190110D9F3990B0895A2
S1131800FB01DC0101900D920020E1F70895FB013A
S1131810DC014150504048F001900D920020C9F77E
S113182001C01D9241505040E0F708957AE0979F1F
S1131830902D879F802D910D11240895AEE0B0E086
S1131840E4E2FCE00C94110F0D891E8986E08C8380
S11318501A8309838FEF9FE79E838D83AE01475ED2
S11318605F4F6F89788DCE0101960E94400CEF8105
S1131870F885E00FF11F10822E96E4E00C942D0FF2
S1131880ABE0B0E0E6E4FCE00C94030F6C017B01F8
S11318908A01FC0117821682838181FFCCC1CE01AB
S11318A001963C01F6019381F70193FD859193FF25
S11318B081917F01882309F4BAC1853239F493FDFB
S11318C0859193FF81917F01853229F4B60190E0DF
S11318D00E94370EE7CF912C212C312CFFE1F31518
S11318E0D8F08B3279F038F4803279F08332A1F475
S11318F0232D20611DC08D3261F0803369F4232DC6
S1131900216016C0832D8260382EE32DE4603E2EC4
S11319102AC0F32DF8601DC037FC2DC020ED280F20
S11319202A3040F08E32B9F436FC81C1232D206474
S1131930322E19C036FE06C08AE0989E200D11246E
S1131940922E11C0EAE02E9E200D1124222EF32D9A
S1131950F0623F2E08C08C3621F4832D8068382E27
S113196002C0883641F4F70193FD859193FF81917C
S11319707F018111B3CF982F9F7D9554933028F424
S11319800C5F1F4F9FE399830DC0833631F083377B
S113199071F0833509F059C021C0F8018081898331
S11319A00E5F1F4F88248394912C530113C0280188
S11319B0F2E04F0E511CF801A080B18036FE03C046
S11319C0692D70E002C06FEF7FEFC5010E942C0EFD
S11319D04C018201F32DFF773F2E16C0280122E02F
S11319E0420E511CF801A080B18036FE03C0692D5F
S11319F070E002C06FEF7FEFC5010E94210E4C0121
S1131A00F32DF0683F2E820133FC1BC0822D90E041
S1131A1088169906B0F4B60180E290E00E94370E71
S1131A202A94F4CFF50137FC859137FE81915F014B
S1131A30B60190E00E94370E21102A9421E0821A08
S1131A4091088114910471F7E8C0843611F0893645
S1131A5041F5F80137FE07C060817181828193816D
S1131A600C5F1F4F08C060817181072E000C880B2A
S1131A70990B0E5F1F4FF32DFF763F2E97FF09C082
S1131A8090958095709561957F4F8F4F9F4FF0682B
S1131A903F2E2AE030E0A3010E94730E882E8618A0
S1131AA045C0853731F4232D2F7EB22E2AE030E055
S1131AB025C0932D997FB92E8F36C1F018F488353F
S1131AC079F0B5C0803719F0883721F0B0C0E92F1C
S1131AD0E061BE2EB4FE0DC0FB2DF460BF2E09C024
S1131AE034FE0AC0292F2660B22E06C028E030E05A
S1131AF005C020E130E002C020E132E0F801B7FE89
S1131B0007C060817181828193810C5F1F4F06C081
S1131B106081718180E090E00E5F1F4FA3010E94FD
S1131B20730E882E8618FB2DFF773F2E36FE0DC0D0
S1131B30232D2E7FA22E891458F434FE0BC032FCC0
S1131B4009C0832D8E7EA82E05C0B82CA32C03C0FB
S1131B50B82C01C0B92CA4FE0FC0FE01E80DF11D84
S1131B608081803321F49A2D997EA92E09C0A2FE8A
S1131B7006C0B394B39404C08A2D867809F0B39454
S1131B80A3FC11C0A0FE06C0B21488F4280C922C49
S1131B909B180EC0B21460F4B60180E290E00E947B
S1131BA0370EB394F7CFB21418F42B1802C0982C44
S1131BB0212CA4FE10C0B60180E390E00E94370EF1
S1131BC0A2FE17C0A1FC03C088E790E002C088E52C
S1131BD090E0B6010CC08A2D867859F0A1FE02C0AF
S1131BE08BE201C080E2A7FC8DE2B60190E00E9486
S1131BF0370E891438F4B60180E390E00E94370E62
S1131C009A94F7CF8A94F301E80DF11D8081B6010F
S1131C1090E00E94370E8110F5CF222009F442CEC5
S1131C20B60180E290E00E94370E2A94F6CFF601C6
S1131C308681978102C08FEF9FEF2B96E2E10C948F
S1131C401F0FFC010590615070400110D8F780957A
S1131C5090958E0F9F1F0895FC0161507040019074
S1131C600110D8F7809590958E0F9F1F08950F93BC
S1131C701F93CF93DF93FB01238121FD03C08FEFDB
S1131C809FEF2CC022FF16C04681578124813581E5
S1131C904217530744F4A081B1819D012F5F3F4F48
S1131CA0318320838C93268137812F5F3F4F378385
S1131CB0268314C08B01EC01FB010084F185E02D27
S1131CC00995892BE1F6D80116968D919C91179769
S1131CD0019617969C938E931697CE01DF91CF9120
S1131CE01F910F910895FA01AA27283051F120314C
S1131CF081F1E8946F936E7F6E5F7F4F8F4F9F4F9C
S1131D00AF4FB1E03ED0B4E03CD0670F781F891FDD
S1131D109A1FA11D680F791F8A1F911DA11D6A0FAB
S1131D20711D811D911DA11D20D009F468943F915E
S1131D302AE0269F11243019305D3193DEF6CF015D
S1131D400895462F4770405D4193B3E00FD0C9F723
S1131D50F6CF462F4F70405D4A3318F0495D31FD90
S1131D604052419302D0A9F7EACFB4E0A6959795E3
S1131D70879577956795BA95C9F7009761057105B9
S1131D8008959B01AC010A2E069457954795379503
S1131D902795BA95C9F7620F731F841F951FA01D5D
S1131DA00895052E97FB1EF400940E94E80E57FD3B
S1131DB007D00E943A0F07FC03D04EF40C94E80EAF
S1131DC050954095309521953F4F4F4F5F4F089563
S1131DD090958095709561957F4F8F4F9F4F089593
S1131DE00E945C0FA59F900DB49F900DA49F800D41
S1131DF0911D11240895B7FF0C94F00E0E94F00E6B
S1131E00821B930B08952F923F924F925F926F9291
S1131E107F928F929F92AF92BF92CF92DF92EF9276
S1131E20FF920F931F93CF93DF93CDB7DEB7CA1BF7
S1131E30DB0B0FB6F894DEBF0FBECDBF09942A8822
S1131E40398848885F846E847D848C849B84AA84CA
S1131E50B984C884DF80EE80FD800C811B81AA8157
S1131E60B981CE0FD11D0FB6F894DEBF0FBECDBF22
S1131E70ED010895A1E21A2EAA1BBB1BFD010DC0A2
S1131E80AA1FBB1FEE1FFF1FA217B307E407F50726
S1131E9020F0A21BB30BE40BF50B661F771F881F02
S1131EA0991F1A9469F760957095809590959B0198
S1131EB0AC01BD01CF010895A29FB001B39FC00141
S1131EC0A39F700D811D1124911DB29F700D811D62
S10D1ED01124911D0895F894FFCF2A
S1131EDA01000000FFFFFFFFFFFF00133701234546
S1131EEA0000256C642E256C642E256C642E256CEA
S1131EFA64202D20253032583A253032583A25307C
S1131F0A32583A253032583A253032583A25303246
S1131F1A58202D20256C750D0A00454E4332384A47
S1131F2A363020686173206265656E20696E697453
S1131F3A69616C697A65640D0A0048656C6C6F2086
S1131F4A45746865726E65740D0A00256C750054D3
S10D1F5A656D700025640D0A000097
S9030000FC
